:100000000C949A000C94C2000C94C2000C94C20090
:100010000C94C2000C94C2000C94C2000C94C20058
:100020000C94C2000C94C2000C94C2000C94C20048
:100030000C94C2000C94C2000C94C2000C94C20038
:100040000C946F060C94C2000C9442040C941C0493
:100050000C94C2000C94C2000C94C2000C94C20018
:100060000C94B9060C94C20008000000BE9224490A
:10007000123EABAAAA2ABECDCCCC4C3E00000080DA
:10008000BEABAAAAAA3E00000000BF000000803F4D
:100090000000000000084178D3BB4387D1133D190D
:1000A0000E3CC3BD4282AD2B3E68EC8276BED98F3A
:1000B000E1A93E4C80EFFFBE01C4FF7F3F0000007E
:1000C000000007634236B79BD8A71A39685618AEA6
:1000D000BAAB558C1D3CB7CC5763BD6DEDFD753E7D
:1000E000F6177231BF000000803F000000002500BD
:1000F00028002B0004040404040404040202020285
:1001000002020303030303030102040810204080DA
:100110000102040810200102040810200000000859
:1001200000020100000304070000000000000000BE
:10013000540AE80C11241FBECFEFD8E0DEBFCDBFBC
:1001400012E0A0E0B1E0E4E8F4E202C005900D9214
:10015000AE31B107D9F723E0AEE1B2E001C01D92A4
:10016000A639B207E1F710E0C9E9D0E004C0219751
:10017000FE010E94160DC839D107C9F70E94A30AD3
:100180000C9435120C940000E091A502F091A602A7
:100190000190F081E02D682F85EA92E00994CF92DA
:1001A000DF92EF92FF920F931F93CF93DF936C0137
:1001B0007A018B01C0E0D0E0CE15DF0589F0D801CF
:1001C0006D918D01D601ED91FC910190F081E02DB2
:1001D000C6010995892B11F47E0102C02196ECCF4E
:1001E000C701DF91CF911F910F91FF90EF90DF90AA
:1001F000CF900895FC01918D828D981761F0828DCA
:10020000DF01A80FB11D5D968C91928D9F5F9F734A
:10021000928F90E008958FEF9FEF0895FC01918DEC
:10022000828D981731F0828DE80FF11D858D90E059
:1002300008958FEF9FEF0895FC01918D228D892FF6
:1002400090E0805C9F4F821B91098F7399270895DE
:1002500085EA92E00E941C0121E0892B09F420E04C
:10026000822F0895FC01848DDF01A80FB11DA35AD0
:10027000BF4F2C91848D90E001968F739927848FC6
:10028000A689B7892C93A089B1898C9180648C93BD
:10029000938D848D981306C00288F389E02D8081A8
:1002A0008F7D80830895EF92FF920F931F93CF93DA
:1002B000DF93EC0181E0888F9B8D8C8D981305C0B6
:1002C000E889F989808185FD24C0F62E0B8D10E028
:1002D0000F5F1F4F0F731127E02E8C8DE8120CC09B
:1002E0000FB607FCFACFE889F989808185FFF5CF41
:1002F000CE010E943201F1CF8B8DFE01E80FF11D7E
:10030000E35AFF4FF0820B8FEA89FB89808180627C
:1003100007C0EE89FF896083E889F989808180645C
:10032000808381E090E0DF91CF911F910F91FF904A
:10033000EF900895CF93DF93EC01888D8823C9F067
:10034000EA89FB89808185FD05C0A889B9898C91DE
:1003500086FD0FC00FB607FCF5CF808185FFF2CF79
:10036000A889B9898C9185FFEDCFCE010E94320119
:10037000E7CFDF91CF91089580E090E0892B29F0BD
:100380000E94280181110C9400000895009769F0E3
:10039000FC0101900020E9F73197AF01481B590B90
:1003A000BC0185EA92E00C94CF0080E090E00895D3
:1003B0000C94C601CF93DF930E94C601EC0182E446
:1003C00091E00E94C6018C0F9D1FDF91CF9108958F
:1003D0008F929F92AF92BF920F931F93CF93DF9311
:1003E000CDB7DEB7A1970FB6F894DEBF0FBECDBF75
:1003F00019A2423008F44AE08E010F5D1F4F842E8F
:10040000912CA12CB12CA50194010E94E90CE62F9E
:10041000B901CA0101501109EA3014F4E05D01C0CC
:10042000E95CD801EC93232B242B252B61F7C80121
:100430000E94C601A1960FB6F894DEBF0FBECDBFD5
:10044000DF91CF911F910F91BF90AF909F908F90B0
:1004500008958F929F92AF92BF92CF92DF92EF92C8
:10046000FF92CF93DF936B017C019B01AC010E9453
:100470000A10882319F085E491E027C0460157014E
:10048000E894B7F82FEF3FEF4FE75FE7C501B401FE
:100490000E940A1081110DC02FEF3FEF4FE75FE779
:1004A000C501B4010E94980D18161CF489E491E06E
:1004B0000CC02FEF3FEF4FE75FE4C701B6010E948A
:1004C000F00E181674F48DE491E0DF91CF91FF9057
:1004D000EF90DF90CF90BF90AF909F908F900C9453
:1004E000C6012FEF3FEF4FE75FECC701B6010E9457
:1004F000980D87FDE8CF20E030E0A901C701B601E3
:100500000E94980D87FF09C08DE20E94C400EC0193
:10051000F7FAF094F7F8F09402C0C0E0D0E02AE0D7
:1005200037ED43EA5BE3C701B6010E942C0D4B0196
:100530005C010E940F0E6B017C010E943E0E9B012C
:10054000AC01C501B4010E942B0D4B015C014AE0D6
:10055000C701B6010E94E801C80FD91F8EE20E94B0
:10056000C400C80FD91F20E030E040E251E4C501CB
:10057000B4010E944D0F4B015C010E940F0E6B01F4
:10058000E12CF12C4AE0C701B6010E94E801C80F36
:10059000D91FC701B6010E943E0E9B01AC01C501E7
:1005A000B4010E942B0D20E030E040E251E40E94B3
:1005B0004D0F0E940F0E80E090E04AE00E94E8019B
:1005C0008C0F9D1FDF91CF91FF90EF90DF90CF9028
:1005D000BF90AF909F908F9008950E94211220911C
:1005E0008A0290918902213208F04AC08091660205
:1005F0008111FCCF32E03093660231E03093650226
:100600003FEF309364021092630220936202A9E6E6
:10061000B2E042E452E0FA013E2F341B321718F4E4
:100620003D913193F9CF1092410220914102990FEF
:10063000922B9093410290914002913061F410927C
:100640004002909141029093BB009091BC0093FDB9
:10065000F8CF95EC01C095EE9093BC0090916602A6
:100660009230E1F3909164029F3F79F080916402AF
:10067000803241F080916402803331F084E005C023
:1006800081E003C082E001C083E010926802109212
:100690008A0210926702089591E09093670290E4B5
:1006A000909389021092680210928A02682F8BE858
:1006B00092E00E942A050C94EF029091660291113B
:1006C000FCCF613208F060E291E090936602909373
:1006D00065022FEF2093640210926302260F20938D
:1006E00062029093410290914102880F892B80937E
:1006F000410280914002813061F410924002809169
:1007000041028093BB008091BC0083FDF8CF85EC53
:1007100001C085EE8093BC00809166028130E1F3D8
:1007200080916302861710F460916302A2E4B2E044
:1007300020E232E0F9018E2F821B861718F48D918A
:100740008193F9CF10921F0260931E02862F0895A5
:10075000CF93DF9363E070E080E490E00E945D035C
:1007600090911E0280911F02981779F08BE892E019
:100770000E94DE04C82F8BE892E00E94DE04D82F8E
:100780008BE892E00E94DE04EBCF8C2F90E0A0E09B
:10079000B0E0BA2FA92F982F8827BC01CD016D0F8B
:1007A000711D811D911DDF91CF91089590E0FC0195
:1007B000E45EFE4F2491FC01E85FFE4F3491FC01A2
:1007C000EC50FF4FE491EE23B1F1222339F12330B5
:1007D00091F038F42130A9F0223001F584B58F7DF5
:1007E00012C0273091F02830A1F02430B9F4809164
:1007F00080008F7D03C0809180008F778093800080
:100800000DC084B58F7784BD09C08091B0008F770B
:1008100003C08091B0008F7D8093B000F0E0EE0FB8
:10082000FF1FE651FF4FA591B4918FB7F894EC915B
:100830003E2B3C938FBF08951F920F920FB60F92DD
:1008400011242F933F934F935F936F937F938F93D5
:100850009F93AF93BF93EF93FF9385EA92E00E943B
:100860003201FF91EF91BF91AF919F918F917F9155
:100870006F915F914F913F912F910F900FBE0F900D
:100880001F9018951F920F920FB60F9211242F935D
:100890008F939F93EF93FF93E091B502F091B6028F
:1008A0008081E091BB02F091BC0282FD12C0908178
:1008B0008091BE028F5F8F732091BF02821751F02B
:1008C000E091BE02F0E0EB55FD4F958F8093BE02A4
:1008D00001C08081FF91EF919F918F912F910F9097
:1008E0000FBE0F901F9018953FB7F89480918E031C
:1008F00090918F03A0919003B091910326B5A89B8E
:1009000005C02F3F19F00196A11DB11D3FBFBA2FA1
:10091000A92F982F8827820F911DA11DB11DBC0101
:10092000CD0142E0660F771F881F991F4A95D1F7C6
:100930000895FC016583089585ED8093BC00809146
:10094000BC0084FDFCCF10926602089540916403C0
:10095000262F30E0240F311D21323105DCF42091A7
:1009600066022430C9F4FC0180E090E0861758F458
:10097000309164032191DC01AE5BBC4FA30FB11D2C
:100980002C930196F3CF80916403680F6093640306
:1009900080E0089581E0089582E008950895E0914F
:1009A0001F0280911E02E81730F4F0E0E05EFD4F78
:1009B000808190E008958FEF9FEF089590911F023E
:1009C00080911E02981750F4E92FF0E0E05EFD4F91
:1009D000208130E09F5F90931F0202C02FEF3FEF16
:1009E000C901089580911E0290E020911F02821B90
:1009F00091090895CF92DF92EF92FF920F931F9388
:100A0000CF93DF937C01262F972F8A018091670275
:100A1000882391F0C62FD72F6E01C40ED51ECC159A
:100A2000DD0571F06991D701ED91FC910190F081A4
:100A3000E02DC7010995F3CF642F822F0E94A604F1
:100A4000C801DF91CF911F910F91FF90EF90DF9040
:100A5000CF900895CF93DF931F92CDB7DEB7698310
:100A6000209167022223D1F020918A02203240F0A7
:100A700021E030E0FC013383228380E090E015C068
:100A800080916802E82FF0E0E759FD4F998190834B
:100A90008F5F8093680280938A0205C061E0CE0177
:100AA00001960E94A60481E090E00F90DF91CF9123
:100AB000089508950F931F93CF93DF938C01EB015B
:100AC00088E2FB0111928A95E9F74BE050E065E17D
:100AD00072E0CE010E9426121B8681E090E0A0E029
:100AE000B0E08C879D87AE87BF87F80182859385AC
:100AF000A485B585888B998BAA8BBB8B85E090E00C
:100B0000A0E0B0E08C8B9D8BAE8BBF8B1CA21DA296
:100B10001EA21FA280E090EDA4E8B6E4888F998F12
:100B2000AA8FBB8F1C8E1D8E1E8E1F8E80E090E0C4
:100B3000A0E8BFE388A399A3AAA3BBA3DF91CF91A9
:100B40001F910F910895CF93DF931F92CDB7DEB71A
:100B5000FC01838191E09093670280938902109257
:100B6000680210928A028BE892E029830E942A058B
:100B70002981622F8BE892E00E942A050F90DF9175
:100B8000CF910C94EF0220E030E0A90160E80C94D2
:100B9000A305CF93DF93EC018B8191E090936702E3
:100BA000809389021092680210928A028BE892E088
:100BB0000E942A050E94EF028B8162E070E0082EFD
:100BC000000C990B0E945D038BE892E00E94DE040A
:100BD000EC018BE892E00E94DE0420E030E0382F48
:100BE000C9018C2B9D2BDF91CF9108950C94891115
:100BF0008F929F92AF92BF92CF92DF92EF92FF922D
:100C00006B017C010E9474044B015C01C114D1048E
:100C1000E104F104F1F00E947404DC01CB018819B5
:100C20009909AA09BB09883E9340A105B10570F353
:100C300021E0C21AD108E108F10888EE880E83E0AD
:100C4000981EA11CB11CC114D104E104F10419F7D0
:100C5000DDCFFF90EF90DF90CF90BF90AF909F904F
:100C60008F900895EF92FF920F931F93CF93DF938E
:100C7000EC017B018A0123E030E040E050E060E8D5
:100C80000E94A3058E819F81009739F0019751F44E
:100C900068E770E080E090E009C06FE070E080E01D
:100CA00090E004C062EC71E080E090E00E94F80502
:100CB0006CEACE010E94C905F701918380836EEA38
:100CC000CE010E94C905F80191838083CE01DF9196
:100CD000CF911F910F91FF90EF900C94C3051F923D
:100CE0000F920FB60F9211242F933F938F939F93E0
:100CF000AF93BF9380918A0390918B03A0918C0353
:100D0000B0918D033091890323E0230F2D3720F418
:100D10000196A11DB11D05C026E8230F0296A11D55
:100D2000B11D2093890380938A0390938B03A09332
:100D30008C03B0938D0380918E0390918F03A091CB
:100D40009003B09191030196A11DB11D80938E0374
:100D500090938F03A0939003B0939103BF91AF91B1
:100D60009F918F913F912F910F900FBE0F901F90E9
:100D700018951F920F920FB60F9211242F933F9345
:100D80004F935F936F937F938F939F93AF93BF9393
:100D9000EF93FF938091B900887F803609F49CC05F
:100DA00068F5883209F45BC090F4803109F454C0CE
:100DB00038F4882309F4F6C0883009F44DC0F6C031
:100DC000883109F44CC0803209F45DC0EFC0803432
:100DD00009F468C048F4803309F455C0883309F039
:100DE000E5C080936402D8C0803509F44FC08835CF
:100DF00009F45DC0883409F0D9C0D6C0883909F437
:100E0000C7C0A8F4883709F467C038F4883609F4F5
:100E100063C0803709F460C0C9C0883809F4B8C01D
:100E2000803909F45FC0803809F0C0C05BC0803BE6
:100E300009F486C038F4803A09F466C0883A09F4A7
:100E40007FC0B4C0803C09F4A7C0883C09F4A4C0AA
:100E5000883B09F48AC0AAC08091410210C09091D9
:100E6000630280916202981770F5E091630281E05D
:100E70008E0F80936302F0E0EE5BFD4F80818093E4
:100E8000BB0085EC86C0809364028EC0E091630253
:100E900081E08E0F809363028091BB00F0E0EE5BF7
:100EA000FD4F808390916302809162026EC0E09159
:100EB000630281E08E0F809363028091BB00F0E0BB
:100EC000EE5BFD4F80838091650281116DC081E0F2
:100ED0008093400284EA61C083E0809366021092AE
:100EE0008803CFCF80918803803208F051C0E09111
:100EF000880381E08E0F809388038091BB00F0E02F
:100F0000E859FC4F8083BDCF85EC8093BC001092E4
:100F1000660280918803803230F4E0918803F0E02B
:100F2000E859FC4F10826091880370E0E0916603FD
:100F3000F091670388E693E009951092880336C024
:100F400084E0809366021092650310926403E0913E
:100F50006203F0916303099580916403811105C0D8
:100F600081E08093640310924203E091650381E085
:100F70008E0F80936503F0E0EE5BFC4F80818093E1
:100F8000BB009091650380916403981708F479CFB2
:100F900085E88093BC000AC085EC8093BC00109269
:100FA000660204C0109264020E949C04FF91EF91BB
:100FB000BF91AF919F918F917F916F915F914F9171
:100FC0003F912F910F900FBE0F901F901895109288
:100FD000660281E0809365021092400282E10E94E5
:100FE000D60383E10E94D603E9EBF0E080818E7F97
:100FF000808380818D7F808388E48093B80085E43E
:101000008093BC0008951F93CF93DF93EC0110925F
:101010001F0210921E021092680210928A020E9411
:10102000E7078B8111E01093670280938902109289
:10103000680210928A026AE08BE892E00E942A0518
:101040000E94EF028B8161E070E0082E000C990B8A
:101050000E945D038BE892E00E94DE048A7081F0BA
:101060001C836E817F81CE010E942A0A6885798562
:10107000CE010E944508CE010E94C30581E001C057
:1010800080E0DF91CF911F9108950F931F93CF932D
:10109000DF93EC018B018C81811103C0CE010E9492
:1010A000030823E030E040E050E060E8CE010E9419
:1010B000A3052E813F81202B312B032E000C440BE6
:1010C000550B61E8CE010E94A30519870887CE0160
:1010D000DF91CF911F910F910C94C3054F925F92B6
:1010E0006F927F928F929F92AF92BF92CF92DF9238
:1010F000EF92FF920F931F93CF93DF93CDB7DEB79D
:1011000029970FB6F894DEBF0FBECDBF8C017B01CF
:1011100084E2FB0111928A95E9F784E290E0A0E075
:10112000B0E0FB0180839183A283B383F8018285C1
:101130009385A485B585FB0184839583A683B783B6
:1011400085E090E0A0E0B0E080879187A287B38738
:101150002FB7F89480918A0390918B03A0918C0310
:10116000B0918D032FBF808B918BA28BB38BF80135
:101170008481811103C0C8010E940308F8018581A0
:1011800081110AC0AE014B5F5F4FBE01695F7F4FA7
:10119000C8010E94320659C020E0F801868197817B
:1011A000009799F0019741F478EC872E912CE0EAB2
:1011B000AE2EECE8BE2E10C054EF852E99249394E9
:1011C00068E1A62E66EFB62E07C034E6832E912C7A
:1011D00042EFA42E42E1B42EAE014F5F5F4FBE013D
:1011E0006D5F7F4FC80129870E9432068B819C81E9
:1011F0002985211124C08815990540F4F80120851E
:101200003185232BE1F460E170E00BC0A816B9062C
:10121000B0F4F801208531852031310581F460E09A
:1012200070E0C8010E944508AE014F5F5F4FBE01EC
:101230006D5F7F4FC8010E94320621E0AECF9887D4
:101240008F8389819A819E838D83CD80DE80AF815B
:10125000B885F80186819781009749F08130910522
:1012600019F428E830E905C028EE3DEF02C024E279
:1012700033E12A173B0708F4CBC02C153D0508F4D1
:10128000C7C0009779F0019739F497EE492E9FE097
:10129000592E612C712C0CC0412C84E0582E612CED
:1012A000712C06C0F7E14F2EF5E75F2E612C712CF3
:1012B000F80180859185892B39F4E4E0440C551CB4
:1012C000661C771CEA95D1F7A30192010E940B0DD1
:1012D0004B015C016AE0B694A794979487946A9551
:1012E000D1F7D6010E940B0D2B013C017AE07694D8
:1012F0006794579447947A95D1F781149104A10487
:10130000B10471F0C301B2014AE0660F771F881F74
:10131000991F4A95D1F7A50194010E94E90C03C0D9
:1013200020E030E0A901DA01C9010196A11DB11D3B
:10133000B695A7959795879581349105A105B10537
:1013400030F181389105A105B10530F1813C91055D
:10135000A105B10530F18130F1E09F07A105B1058C
:1013600028F1893321E09207A105B10520F18B39DD
:1013700031E09307A105B10518F18B399240A10521
:10138000B10518F1E0E0F0E0A0E0B0E022C0EEEB43
:10139000F1E0A2EFB1E01DC0E1EDF2E0A4E1B2E0C6
:1013A00018C0EBE7F3E0AFE3B2E013C0EEEFF3E019
:1013B000A0E7B2E00EC0ECEFF1E0AFE6B1E009C0AB
:1013C000EBEFF0E0A2EDB0E004C0E2E1F0E0A8E174
:1013D000B0E0A50194010E940B0D4B015C0150E2AD
:1013E000950EA11CB11CDF01A30192010E940B0DFF
:1013F000A5019401261B370B480B590BCA01B901F3
:101400002EE096958795779567952A95D1F703C035
:1014100060E070E0CB010E943E0EF701648B758B9B
:10142000868B978B81E029960FB6F894DEBF0FBEAE
:10143000CDBFDF91CF911F910F91FF90EF90DF9083
:10144000CF90BF90AF909F908F907F906F905F9064
:101450004F9008950F931F93CF93DF93EC018B016F
:101460008C81811103C0CE010E94030823E030E08B
:1014700040E050E060E8CE010E94A3052885398550
:10148000202B312B032E000C440B550B61E8CE01B1
:101490000E94A3051F830E83CE01DF91CF911F9180
:1014A0000F910C94C3050895E5EAF2E013821282CD
:1014B00088EE93E0A0E0B0E084839583A683B783B1
:1014C0002AE031E03183208325EC30E03587248722
:1014D00024EC30E03787268720EC30E0318B208BFE
:1014E00021EC30E0338B228B22EC30E0358B248BE7
:1014F00026EC30E0378B268B118E128E138E148ED5
:10150000EBE8F2E01382128284839583A683B7838B
:101510008AE191E091838083E7E9F2E08AE291E059
:101520009183808389E383831482158217821682D4
:101530001186108689E390E3A0E0B0E0828793876C
:10154000A487B5870895CF93DF93CDB7DEB7AC9767
:101550000FB6F894DEBF0FBECDBF789484B582601D
:1015600084BD84B5816084BD85B5826085BD85B547
:10157000816085BD80916E00816080936E001092C5
:101580008100809181008260809381008091810040
:1015900081608093810080918000816080938000D1
:1015A0008091B10084608093B1008091B00081602F
:1015B0008093B00080917A00846080937A0080915B
:1015C0007A00826080937A0080917A0081608093B3
:1015D0007A0080917A00806880937A001092C1002E
:1015E00010921F0210921E021092680210928A023C
:1015F0000E94E707E091B502F091B60282E0808395
:10160000E091B102F091B2021082E091B302F09148
:10161000B4028FEC80831092BD02E091B902F09188
:10162000BA0286E08083E091B702F091B80280812F
:1016300080618083E091B702F091B8028081886078
:101640008083E091B702F091B80280818068808346
:10165000E091B702F091B80280818F7D808387E9A5
:1016600092E00E940308811105C081E591E00E948B
:10167000D801FFCF81E080939C0262E070E087E9AF
:1016800092E00E942A0A64E670E080E090E00E9406
:10169000F8056AE070E080E090E00E94F80583EED3
:1016A00090E00E944C030E94A8030E94400E20E09C
:1016B00030E040E857E30E944D0F22E538EB4FE25F
:1016C00053E40E944D0F20E030E04FE352E40E94CB
:1016D0002B0D2FE832EC45EF5CE30E942C0D4B0103
:1016E0005C016AE070E080E090E00E94F80585EE21
:1016F00090E00E944C030E94A8030E94400E20E04C
:1017000030E040E857E30E944D0F20E030E04AEF20
:1017100052E40E944D0F20E030E040EC50E40E9483
:101720002B0D2B013C01A501940160E070E088ECD9
:1017300091E40E942B0D2AE939E949E15EEB0E9410
:101740004D0F9B01AC01C301B2010E942C0D6DA392
:101750007EA38FA398A726EF38EA4BE653E4C50192
:10176000B4010E942C0D9B01AC016BE77CE48CED75
:1017700094E40E949D0D9B01AC0166E971E282E058
:1017800091E40E942B0D9B01AC0160E070E080E2CF
:1017900091E40E94BA0F6B017C019B01AC016DA129
:1017A0007EA18FA198A50E944D0F20E030E048EC6B
:1017B00052E40E949D0D0E94F50E26E931E242E0BE
:1017C00051E40E942B0D9B01AC016BE77CE48CED96
:1017D00094E40E949D0D26EF38EA4BE653E40E9404
:1017E0002C0D9B01AC01505829A73AA74BA75CA729
:1017F000BE016F5F7F4F87E992E00E946E0820E094
:1018000030E0A9016D897E898F89988D0E94980D9D
:101810008823C9F08FE891E00E94D8016AE070E067
:1018200080E090E00E94F8056D897E898F89988D0F
:101830000E9429026AE070E080E090E00E94F805D2
:1018400082EA91E00CC08FE891E00E94D8016AE042
:1018500070E080E090E00E94F80586EA91E00E9446
:10186000DA016AE070E080E090E00E94F8058BEA1F
:1018700091E00E94D8016AE070E080E090E00E9470
:10188000F805C501B4010E9429026AE070E080E019
:1018900090E00E94F80580EB0E94C4006AE070E0CE
:1018A00080E090E00E94F8058EEB91E00E94DA0162
:1018B0006AE070E080E090E00E94F80580EC91E042
:1018C0000E94D8016AE070E080E090E00E94F80594
:1018D00069A57AA58BA59CA50E9429026AE070E003
:1018E00080E090E00E94F80580EB0E94C4006AE06E
:1018F00070E080E090E00E94F8058EEB91E00E949D
:10190000DA016AE070E080E090E00E94F80583ED83
:1019100091E00E94D8016AE070E080E090E00E94CF
:10192000F805C301B2010E9429026AE070E080E07C
:1019300090E00E94F80586EE91E00E94DA016AE0EC
:1019400070E080E090E00E94F8058AEE91E00E944D
:10195000D8016AE070E080E090E00E94F8056DA197
:101960007EA18FA198A50E9429026AE070E080E024
:1019700090E00E94F80586EE91E00E94DA016AE0AC
:1019800070E080E090E00E94F8058DEF91E00E9409
:10199000D8016AE070E080E090E00E94F805C7019D
:1019A000B6010E9429026AE070E080E090E00E94A7
:1019B000F80580E192E00E94DA016AE070E080E0E0
:1019C00090E00E94F80560E177E280E090E05FCE71
:1019D0000895A1E21A2EAA1BBB1BFD010DC0AA1F70
:1019E000BB1FEE1FFF1FA217B307E407F50720F088
:1019F000A21BB30BE40BF50B661F771F881F991F03
:101A00001A9469F760957095809590959B01AC014B
:101A1000BD01CF0108950E941C0DA59F900DB49F9C
:101A2000900DA49F800D911D11240895EE0FFF1FAE
:101A30000590F491E02D0994A29FB001B39FC001DD
:101A4000A39F700D811D1124911DB29F700D811DEA
:101A50001124911D08955058BB27AA270E94430DB9
:101A60000C94B60E0E94A80E38F00E94AF0E20F023
:101A700039F49F3F19F426F40C94A50E0EF4E0956A
:101A8000E7FB0C949F0EE92F0E94C70E58F3BA177C
:101A9000620773078407950720F079F4A6F50C9484
:101AA000E90E0EF4E0950B2EBA2FA02D0B01B90113
:101AB00090010C01CA01A0011124FF27591B99F0C4
:101AC000593F50F4503E68F11A16F040A22F232FD0
:101AD000342F4427585FF3CF469537952795A79520
:101AE000F0405395C9F77EF41F16BA0B620B730BC7
:101AF000840BBAF09150A1F0FF0FBB1F661F771F38
:101B0000881FC2F70EC0BA0F621F731F841F48F4EC
:101B1000879577956795B795F7959E3F08F0B0CF75
:101B20009395880F08F09927EE0F9795879508955C
:101B30000E947B0E08F481E008950E94B10D0C9480
:101B4000B60E0E94AF0E58F00E94A80E40F029F485
:101B50005F3F29F00C949F0E51110C94EA0E0C94E7
:101B6000A50E0E94C70E68F39923B1F3552391F394
:101B7000951B550BBB27AA2762177307840738F0FC
:101B80009F5F5F4F220F331F441FAA1FA9F335D059
:101B90000E2E3AF0E0E832D091505040E695001C0D
:101BA000CAF72BD0FE2F29D0660F771F881FBB1FC7
:101BB000261737074807AB07B0E809F0BB0B802DA5
:101BC000BF01FF2793585F4F3AF09E3F510578F0D1
:101BD0000C949F0E0C94EA0E5F3FE4F3983ED4F30E
:101BE000869577956795B795F7959F5FC9F7880FA5
:101BF000911D9695879597F90895E1E0660F771FF7
:101C0000881FBB1F621773078407BA0720F0621B87
:101C1000730B840BBA0BEE1F88F7E09508950E94B2
:101C2000CF0E88F09F5798F0B92F9927B751B0F091
:101C3000E1F0660F771F881F991F1AF0BA95C9F750
:101C400014C0B13091F00E94E90EB1E008950C94F7
:101C5000E90E672F782F8827B85F39F0B93FCCF3AA
:101C6000869577956795B395D9F73EF490958095CD
:101C7000709561957F4F8F4F9F4F0895E89409C0ED
:101C800097FB3EF490958095709561957F4F8F4FAF
:101C90009F4F9923A9F0F92F96E9BB279395F695C5
:101CA000879577956795B795F111F8CFFAF4BB0F43
:101CB00011F460FF1BC06F5F7F4F8F4F9F4F16C0A7
:101CC000882311F096E911C0772321F09EE8872F31
:101CD000762F05C0662371F096E8862F70E060E0ED
:101CE0002AF09A95660F771F881FDAF7880F969566
:101CF000879597F90895990F0008550FAA0BE0E80A
:101D0000FEEF16161706E807F907C0F012161306BD
:101D1000E407F50798F0621B730B840B950B39F4FD
:101D20000A2661F0232B242B252B21F408950A2663
:101D300009F4A140A6958FEF811D811D089597F9A3
:101D40009F6780E870E060E008959FEF80EC089561
:101D500000240A941616170618060906089500248A
:101D60000A9412161306140605060895092E039404
:101D7000000C11F4882352F0BB0F40F4BF2B11F478
:101D800060FF04C06F5F7F4F8F4F9F4F089557FDD7
:101D90009058440F551F59F05F3F71F04795880FD9
:101DA00097FB991F61F09F3F79F087950895121670
:101DB00013061406551FF2CF4695F1DF08C016161C
:101DC00017061806991FF1CF8695710561050894CD
:101DD0000895E894BB2766277727CB0197F90895E4
:101DE0000E947B0E08F48FEF08950E94050F29EDE5
:101DF0003BE54EED5EE30C944D0F16F00C9449104C
:101E00000C94A50E68940C949F0E0E94CF0EA8F31C
:101E10009923C1F3AEF3DF93CF931F930F93FF92F8
:101E2000C92FDD2788232AF02197660F771F881F87
:101E3000DAF720E030E040E85FEB9FE3883920F0FC
:101E4000803E38F021968F770E942C0DE8E6F0E076
:101E500004C00E942C0DE5E9F0E00E9457108B01B0
:101E6000BE01EC01FB2E6F5771097595771F880B2A
:101E7000990B0E94400E28E132E741E35FE30E94A4
:101E8000600FAF2D9801AE01FF900F911F91CF9180
:101E9000DF910E94430D0C94B60E0E94600F0C94CB
:101EA000B60E0E94A80E38F00E94AF0E20F09523C7
:101EB00011F00C949F0E0C94A50E11240C94EA0EB4
:101EC0000E94C70E70F3959FC1F3950F50E0551F08
:101ED000629FF001729FBB27F00DB11D639FAA277F
:101EE000F00DB11DAA1F649F6627B00DA11D661FCE
:101EF000829F2227B00DA11D621F739FB00DA11DEF
:101F0000621F839FA00D611D221F749F3327A00DA8
:101F1000611D231F849F600D211D822F762F6A2F44
:101F200011249F5750409AF0F1F088234AF0EE0FA9
:101F3000FF1FBB1F661F771F881F91505040A9F7D6
:101F40009E3F510580F00C949F0E0C94EA0E5F3F6B
:101F5000E4F3983ED4F3869577956795B795F79512
:101F6000E7959F5FC1F7FE2B880F911D969587958A
:101F700097F90895FA01EE0FFF1F309621053105FC
:101F8000A1F16115710561F48038BFE39B0749F148
:101F900068949038810561F08038BFEF9B0741F06D
:101FA00099234AF5FF3FE1053105210519F1E89430
:101FB0000894E795D901AA2329F4AB2FBE2FF85F27
:101FC000D0F310C0FF5F70F4A695E0F7F73950F03A
:101FD00019F0FF3A38F49F779F930DD00F9007FCCC
:101FE0009058089546F00C94A50E60E070E080E8EB
:101FF0009FE308954FE79F775F934F933F932F930E
:102000000E94050F2F913F914F915F910E944D0FBC
:102010000C9417100E947B0E880B990B089529F4DD
:1020200016F00C949F0E0C94E90E0C94A50E0E94D1
:10203000CF0EA8F39638A0F707F80F92E8942BE399
:102040003AEA48EB5FE70E94630F0F920F920F92FC
:102050004DB75EB70F920E94C010E2ECF0E00E9414
:1020600057104F915F91EF91FF91E595EE1FFF1F84
:1020700049F0FE57E0684427EE0F441FFA95E1F758
:102080004195550B0E948A100F9007FE0C947E100C
:1020900008959F3F31F0915020F48795779567958B
:1020A000B795880F911D9695879597F90895DF93B9
:1020B000CF931F930F93FF92EF92DF927B018C01DE
:1020C000689406C0DA2EEF010E94600FFE01E894CA
:1020D000A5912591359145915591A6F3EF010E9467
:1020E000430DFE019701A801DA9469F7DF90EF90A4
:1020F000FF900F911F91CF91DF9108959B01AC014B
:1021000060E070E080E89FE30C949D0D0C949F0EBE
:102110000C9449100E94CF0ED8F39923C9F3940F61
:10212000511DA3F39150504094F059F0882332F0A0
:10213000660F771F881F91505040C1F79E3F510591
:102140002CF7880F911D9695879597F908955F3F15
:10215000ACF0983E9CF0BB27869577956795B79530
:1021600008F4B1609395C1F7BB0F58F711F460FF05
:10217000E8CF6F5F7F4F8F4F9F4FE3CF0C94EA0EF6
:10218000FA01DC01AA0FBB1F9B01AC01BF5728F469
:10219000222733274427507820C0B75190F4AB2F23
:1021A0000024469537952795011CA395D2F300206E
:1021B00071F0220F331F441FB395DAF30ED00C9445
:1021C0002B0D61307105A0E88A07B94630F49B01F8
:1021D000AC016627772788279078309621F02083F6
:1021E0003183428353830895CF93DF9382309105E7
:1021F00010F482E090E0E0919403F091950320E0E8
:1022000030E0C0E0D0E0309711F1408151814817B3
:102210005907C0F04817590761F4828193812097CC
:1022200019F09B838A832BC090939503809394032A
:1022300026C02115310519F04217530718F49A01E9
:10224000BE01DF01EF010280F381E02DDCCF21151B
:10225000310509F1281B390B2430310590F4129611
:102260008D919C9113976115710521F0FB0193836A
:10227000828304C09093950380939403FD0132966A
:1022800044C0FD01E20FF31F819391932250310965
:102290002D933C933AC02091920330919303232BCA
:1022A00041F4209102013091030130939303209374
:1022B000920320910001309101012115310541F473
:1022C0002DB73EB74091040150910501241B350BF9
:1022D000E0919203F0919303E217F307A0F42E1B11
:1022E0003F0B2817390778F0AC014E5F5F4F24177A
:1022F000350748F04E0F5F1F5093930340939203AE
:102300008193919302C0E0E0F0E0CF01DF91CF91A3
:1023100008950F931F93CF93DF93009709F48CC018
:10232000FC0132971382128200919403109195035D
:102330000115110581F420813181820F931F2091B5
:102340009203309193032817390779F5F09393039B
:10235000E093920371C0D80140E050E0AE17BF0790
:1023600050F412962D913C911397AD012115310532
:1023700009F1D901F3CF9D01DA0133832283608112
:102380007181860F971F8217930769F4EC012881EA
:102390003981260F371F2E5F3F4F318320838A817B
:1023A0009B8193838283452B29F4F0939503E093DB
:1023B000940342C01396FC93EE931297ED0149915A
:1023C00059919E01240F351FE217F30771F48081A4
:1023D0009181840F951F029611969C938E93828112
:1023E000938113969C938E931297E0E0F0E0D801CE
:1023F00012968D919C911397009719F0F8018C011A
:10240000F6CF8D919C9198012E5F3F4F820F931FC5
:1024100020919203309193032817390769F430977C
:1024200029F4109295031092940302C01382128231
:102430001093930300939203DF91CF911F910F911B
:10244000089581E090E0F8940C943512FB01DC01D2
:102450004150504048F001900D920020C9F701C052
:102460001D9241505040E0F7089510E0C9E9D0E0D6
:1024700004C0FE010E94160D2196CA39D107C9F782
:04248000F894FFCFFE
:10248400000096038000000000005301CF001C01EF
:10249400FA000E019A01000000002A05FA04F20471
:1024A400DE04CF04CE0400000000530AF6059904AC
:1024B4006E085A0500000000000000005905ED02F6
:1024C400ED020D0A006E616E00696E66006F76663D
:1024D400004F6F6F70732C206E6F2054534C323545
:1024E4003631206465746563746564202E2E2E2055
:1024F400436865636B20796F757220776972696EC2
:1025040067206F72204932432041444452210049DC
:102514006C756D696E616E63652020202020203B00
:1025240020006C7578004E756C6C0054656D706598
:1025340072617475726520202020203B20004300C6
:1025440044657720506F696E74202020202020205D
:102554003B200048756D696469747920287261773D
:102564002920203B20002552480048756D69646984
:1025740074792028636F6D7029203B2000566170A8
:102584006F7220507265737375726520203B200052
:0E2594006D6D48670054534C323536310000EF
:107800000C94343C0C94513C0C94513C0C94513CE1
:107810000C94513C0C94513C0C94513C0C94513CB4
:107820000C94513C0C94513C0C94513C0C94513CA4
:107830000C94513C0C94513C0C94513C0C94513C94
:107840000C94513C0C94513C0C94513C0C94513C84
:107850000C94513C0C94513C0C94513C0C94513C74
:107860000C94513C0C94513C11241FBECFEFD8E036
:10787000DEBFCDBF11E0A0E0B1E0ECE9FFE702C060
:1078800005900D92A230B107D9F712E0A2E0B1E065
:1078900001C01D92AD30B107E1F70E942D3D0C945F
:1078A000CC3F0C94003C982F959595959595959582
:1078B000905D8F708A307CF0282F295A8091C0000B
:1078C00085FFFCCF9093C6008091C00085FFFCCF60
:1078D0002093C6000895282F205DF0CF982F809127
:1078E000C00085FFFCCF9093C6000895EF92FF92F1
:1078F0000F931F93EE24FF2487018091C00087FD22
:1079000017C00894E11CF11C011D111D81E4E8164B
:1079100082E4F8068FE0080780E0180770F3E09132
:107920000401F091050109958091C00087FFE9CF1E
:107930008091C6001F910F91FF90EF9008950E94D3
:10794000763C982F8091C00085FFFCCF9093C600B5
:1079500091362CF490330CF09053892F089597555D
:10796000892F08951F930E949F3C182F0E949F3CCF
:107970001295107F810F1F9108951F93182F882350
:1079800021F00E94763C1150E1F71F9108951F935A
:10799000182F0E94763C803249F0809103018F5F5E
:1079A000809303018530C1F01F9108958091C0003C
:1079B00085FFFCCF84E18093C6008091C00085FFE5
:1079C000FCCF1093C6008091C00085FFFCCF80E102
:1079D0008093C6001F910895E0910401F091050184
:1079E00009951F9108950E94763C803241F0809164
:1079F00003018F5F80930301853081F008958091AA
:107A0000C00085FFFCCF84E18093C6008091C00058
:107A100085FFFCCF80E18093C6000895E0910401CA
:107A2000F09105010995089540E951E08823A1F0FE
:107A30002D9A28EE33E0FA013197F1F721503040CA
:107A4000D1F72D9828EE33E0FA013197F1F7215064
:107A50003040D1F7815061F708953F924F925F9285
:107A60006F927F928F929F92AF92BF92CF92DF924E
:107A7000EF92FF920F931F93CF93DF93000080E16B
:107A80008093C4001092C50088E18093C10086E015
:107A90008093C2005098589A259A81E00E94143D24
:107AA00024E1F22E9EE1E92E85E9D82E0FE0C02ECA
:107AB00010E1B12EAA24A394B1E49B2EA6E58A2E50
:107AC000F2E57F2EE0E26E2E79E4572E63E5462E36
:107AD00050E5352E0E94763C8033B1F18133B9F107
:107AE000803409F46FC0813409F476C0823409F41B
:107AF00085C0853409F488C0803531F1823521F1A3
:107B0000813511F1853509F485C0863509F48DC0BC
:107B1000843609F496C0843709F403C1853709F423
:107B200072C1863709F466C0809103018F5F80932C
:107B30000301853079F6E0910401F0910501099582
:107B40000E94763C803351F60E94F33CC3CF0E94E2
:107B5000763C803249F78091C00085FFFCCFF092DF
:107B6000C6008091C00085FFFCCF9092C600809136
:107B7000C00085FFFCCF8092C6008091C00085FFC9
:107B8000FCCF7092C6008091C00085FFFCCF609250
:107B9000C6008091C00085FFFCCF5092C600809146
:107BA000C00085FFFCCF4092C6008091C00085FFD9
:107BB000FCCF3092C6008091C00085FFFCCFB09210
:107BC000C60088CF0E94763C863808F4BDCF0E945C
:107BD000763C0E94F33C7ECF0E94763C803809F4CC
:107BE0009CC0813809F40BC1823809F43CC1883942
:107BF00009F48FC080E00E94C73C6CCF84E10E94F2
:107C0000BD3C0E94F33C66CF85E00E94BD3C0E94D3
:107C1000F33C60CF0E94763C809306010E94763C44
:107C2000809307010E94F33C55CF0E94763C80333D
:107C300009F41DC183E00E94BD3C80E00E94C73C66
:107C400049CF0E94763C809309020E94763C809343
:107C5000080280910C028E7F80930C020E94763C79
:107C6000853409F415C18091080290910902892B8D
:107C700089F000E010E00E94763CF801E85FFE4FDA
:107C800080830F5F1F4F80910802909109020817AF
:107C9000190788F30E94763C803209F045CF809125
:107CA0000C0280FF01C16091060170910701660F0F
:107CB000771F7093070160930601A0910802B091AD
:107CC00009021097C9F0E8E0F1E09B01AD014E0F09
:107CD0005F1FF999FECF32BD21BD819180BDFA9A17
:107CE000F99A2F5F3F4FE417F50799F76A0F7B1F4B
:107CF00070930701609306018091C00085FFFCCF5F
:107D0000F092C6008091C00085FFFCCFB092C60003
:107D1000E1CE83E00E94C73CDDCE82E00E94C73CFA
:107D2000D9CE0E94763C809309020E94763C8093D3
:107D300008028091060190910701880F991F909386
:107D40000701809306010E94763C853409F4A6C0A1
:107D500080910C028E7F80930C020E94763C8032D0
:107D600009F0B8CE8091C00085FFFCCFF092C6002C
:107D7000609108027091090261157105B9F140E046
:107D800050E080910C02A82FA170B82FB27011C0E2
:107D9000BB2309F45CC0E0910601F0910701319624
:107DA000F0930701E09306014F5F5F4F46175707B7
:107DB000E8F4AA2369F3F999FECF209106013091E6
:107DC000070132BD21BDF89A90B58091C00085FFB2
:107DD000FCCF9093C6002F5F3F4F30930701209355
:107DE00006014F5F5F4F4617570718F38091C00099
:107DF00085FDE5CE8091C00085FFF8CFE0CE81E023
:107E00000E94C73C67CE0E94763C803209F08CCE3F
:107E10008091C00085FFFCCFF092C6008091C00029
:107E200085FFFCCFE092C6008091C00085FFFCCFAB
:107E3000D092C6008091C00085FFFCCFC092C600E2
:107E40008091C00085FFFCCFB092C60043CEE09188
:107E50000601F091070194918091C00085FFFCCF4D
:107E60009093C6009CCF80E10E94C73C33CE0E9415
:107E7000763C0E94763C182F0E94763C112309F430
:107E800083C0113009F484C08FE00E94C73C22CE29
:107E900080910C02816080930C02E5CE80910C02EF
:107EA000816080930C0259CF809107018823880F4D
:107EB000880B8A2180930B02809106019091070123
:107EC000880F991F90930701809306018091080203
:107ED00080FF09C080910802909109020196909359
:107EE000090280930802F894F999FECF1127E091D6
:107EF0000601F0910701C8E0D1E08091080290915D
:107F00000902103091F40091570001700130D9F34B
:107F100003E000935700E89500915700017001308D
:107F2000D9F301E100935700E89509901990009169
:107F3000570001700130D9F301E000935700E89534
:107F40001395103498F011270091570001700130FB
:107F5000D9F305E000935700E895009157000170B0
:107F60000130D9F301E100935700E895329602976A
:107F700009F0C7CF103011F00296E5CF112480919F
:107F8000C00085FFB9CEBCCE8EE10E94C73CA2CD19
:0C7F900085E90E94C73C9ECDF894FFCF0D
:027F9C00800063
:040000030000780081
:00000001FF
